{
  "_format": "hh-sol-artifact-1",
  "contractName": "Voting",
  "sourceName": "contracts/Voting.sol",
  "abi": [
    {
      "anonymous": false,
      "inputs": [
        {
          "indexed": true,
          "internalType": "uint256",
          "name": "pollId",
          "type": "uint256"
        },
        {
          "indexed": true,
          "internalType": "uint256",
          "name": "contestantId",
          "type": "uint256"
        },
        {
          "indexed": false,
          "internalType": "string",
          "name": "name",
          "type": "string"
        },
        {
          "indexed": false,
          "internalType": "string",
          "name": "image",
          "type": "string"
        },
        {
          "indexed": true,
          "internalType": "address",
          "name": "contestantAddress",
          "type": "address"
        }
      ],
      "name": "ContestantAdded",
      "type": "event"
    },
    {
      "anonymous": false,
      "inputs": [
        {
          "indexed": true,
          "internalType": "uint256",
          "name": "pollId",
          "type": "uint256"
        },
        {
          "indexed": false,
          "internalType": "uint256",
          "name": "winnerId",
          "type": "uint256"
        },
        {
          "indexed": false,
          "internalType": "string",
          "name": "winnerName",
          "type": "string"
        },
        {
          "indexed": false,
          "internalType": "address",
          "name": "winnerAddress",
          "type": "address"
        }
      ],
      "name": "PollEnded",
      "type": "event"
    },
    {
      "anonymous": false,
      "inputs": [
        {
          "indexed": true,
          "internalType": "address",
          "name": "voter",
          "type": "address"
        },
        {
          "indexed": false,
          "internalType": "uint256",
          "name": "timestamp",
          "type": "uint256"
        }
      ],
      "name": "Voted",
      "type": "event"
    },
    {
      "anonymous": false,
      "inputs": [
        {
          "indexed": true,
          "internalType": "uint256",
          "name": "pollId",
          "type": "uint256"
        },
        {
          "indexed": true,
          "internalType": "address",
          "name": "voter",
          "type": "address"
        }
      ],
      "name": "VoterWhitelisted",
      "type": "event"
    },
    {
      "inputs": [
        {
          "internalType": "uint256",
          "name": "pollId",
          "type": "uint256"
        },
        {
          "internalType": "string",
          "name": "name",
          "type": "string"
        },
        {
          "internalType": "string",
          "name": "image",
          "type": "string"
        },
        {
          "internalType": "address",
          "name": "contestantAddress",
          "type": "address"
        }
      ],
      "name": "contest",
      "outputs": [],
      "stateMutability": "nonpayable",
      "type": "function"
    },
    {
      "inputs": [
        {
          "internalType": "string",
          "name": "image",
          "type": "string"
        },
        {
          "internalType": "string",
          "name": "title",
          "type": "string"
        },
        {
          "internalType": "string",
          "name": "description",
          "type": "string"
        },
        {
          "internalType": "uint256",
          "name": "startsAt",
          "type": "uint256"
        },
        {
          "internalType": "uint256",
          "name": "endsAt",
          "type": "uint256"
        }
      ],
      "name": "createPoll",
      "outputs": [],
      "stateMutability": "nonpayable",
      "type": "function"
    },
    {
      "inputs": [
        {
          "internalType": "uint256",
          "name": "pollId",
          "type": "uint256"
        }
      ],
      "name": "deletePoll",
      "outputs": [],
      "stateMutability": "nonpayable",
      "type": "function"
    },
    {
      "inputs": [],
      "name": "getAllPolls",
      "outputs": [
        {
          "components": [
            {
              "internalType": "uint256",
              "name": "id",
              "type": "uint256"
            },
            {
              "internalType": "string",
              "name": "image",
              "type": "string"
            },
            {
              "internalType": "string",
              "name": "title",
              "type": "string"
            },
            {
              "internalType": "string",
              "name": "description",
              "type": "string"
            },
            {
              "internalType": "uint256",
              "name": "votes",
              "type": "uint256"
            },
            {
              "internalType": "uint256",
              "name": "contestants",
              "type": "uint256"
            },
            {
              "internalType": "bool",
              "name": "deleted",
              "type": "bool"
            },
            {
              "internalType": "address",
              "name": "director",
              "type": "address"
            },
            {
              "internalType": "uint256",
              "name": "startsAt",
              "type": "uint256"
            },
            {
              "internalType": "uint256",
              "name": "endsAt",
              "type": "uint256"
            },
            {
              "internalType": "uint256",
              "name": "timestamp",
              "type": "uint256"
            },
            {
              "internalType": "address[]",
              "name": "voters",
              "type": "address[]"
            },
            {
              "internalType": "string[]",
              "name": "avatars",
              "type": "string[]"
            }
          ],
          "internalType": "struct Voting.PollStruct[]",
          "name": "",
          "type": "tuple[]"
        }
      ],
      "stateMutability": "view",
      "type": "function"
    },
    {
      "inputs": [
        {
          "internalType": "uint256",
          "name": "pollId",
          "type": "uint256"
        }
      ],
      "name": "getContestants",
      "outputs": [
        {
          "components": [
            {
              "internalType": "uint256",
              "name": "id",
              "type": "uint256"
            },
            {
              "internalType": "string",
              "name": "image",
              "type": "string"
            },
            {
              "internalType": "string",
              "name": "name",
              "type": "string"
            },
            {
              "internalType": "address",
              "name": "contestantAddress",
              "type": "address"
            },
            {
              "internalType": "uint256",
              "name": "votes",
              "type": "uint256"
            },
            {
              "internalType": "address[]",
              "name": "voters",
              "type": "address[]"
            }
          ],
          "internalType": "struct Voting.ContestantStruct[]",
          "name": "",
          "type": "tuple[]"
        }
      ],
      "stateMutability": "view",
      "type": "function"
    },
    {
      "inputs": [
        {
          "internalType": "uint256",
          "name": "pollId",
          "type": "uint256"
        }
      ],
      "name": "getWhitelistedVoters",
      "outputs": [
        {
          "internalType": "address[]",
          "name": "",
          "type": "address[]"
        }
      ],
      "stateMutability": "view",
      "type": "function"
    },
    {
      "inputs": [
        {
          "internalType": "uint256",
          "name": "pollId",
          "type": "uint256"
        }
      ],
      "name": "getWinner",
      "outputs": [
        {
          "internalType": "uint256",
          "name": "winnerId",
          "type": "uint256"
        },
        {
          "internalType": "string",
          "name": "winnerName",
          "type": "string"
        },
        {
          "internalType": "address",
          "name": "winnerAddress",
          "type": "address"
        }
      ],
      "stateMutability": "view",
      "type": "function"
    },
    {
      "inputs": [
        {
          "internalType": "uint256",
          "name": "pollId",
          "type": "uint256"
        },
        {
          "internalType": "uint256",
          "name": "contestantId",
          "type": "uint256"
        }
      ],
      "name": "vote",
      "outputs": [],
      "stateMutability": "nonpayable",
      "type": "function"
    },
    {
      "inputs": [
        {
          "internalType": "uint256",
          "name": "pollId",
          "type": "uint256"
        },
        {
          "internalType": "address",
          "name": "voter",
          "type": "address"
        }
      ],
      "name": "whitelistVoter",
      "outputs": [],
      "stateMutability": "nonpayable",
      "type": "function"
    }
  ],
  "bytecode": "0x6080604052348015600f57600080fd5b50613af38061001f6000396000f3fe608060405234801561001057600080fd5b50600436106100935760003560e01c80635ad77fdb116100665780635ad77fdb14610120578063b384abef1461013c578063cee9dc4514610158578063df3bd17a14610188578063f0d0bc45146101b857610093565b80631f35b51d1461009857806332b633fa146100b45780634129b2c9146100d25780634574a32e14610104575b600080fd5b6100b260048036038101906100ad91906121fa565b6101d4565b005b6100bc61036e565b6040516100c9919061268a565b60405180910390f35b6100ec60048036038101906100e791906121fa565b610807565b6040516100fb93929190612714565b60405180910390f35b61011e600480360381019061011991906128b3565b610b09565b005b61013a60048036038101906101359190612952565b610f33565b005b61015660048036038101906101519190612992565b6111fa565b005b610172600480360381019061016d91906121fa565b611704565b60405161017f9190612b2b565b60405180910390f35b6101a2600480360381019061019d91906121fa565b611a8a565b6040516101af9190612bbc565b60405180910390f35b6101d260048036038101906101cd9190612bde565b611b8b565b005b6002600082815260200190815260200160002060009054906101000a900460ff16610234576040517f08c379a000000000000000000000000000000000000000000000000000000000815260040161022b90612cf9565b60405180910390fd5b3373ffffffffffffffffffffffffffffffffffffffff166003600083815260200190815260200160002060060160019054906101000a900473ffffffffffffffffffffffffffffffffffffffff1673ffffffffffffffffffffffffffffffffffffffff16146102d8576040517f08c379a00000000000000000000000000000000000000000000000000000000081526004016102cf90612d8b565b60405180910390fd5b6003600082815260200190815260200160002060060160009054906101000a900460ff161561033c576040517f08c379a000000000000000000000000000000000000000000000000000000000815260040161033390612df7565b60405180910390fd5b60016003600083815260200190815260200160002060060160006101000a81548160ff02191690831515021790555050565b60606000805467ffffffffffffffff81111561038d5761038c61275c565b5b6040519080825280602002602001820160405280156103c657816020015b6103b3611f80565b8152602001906001900390816103ab5790505b5090506000600190505b60005481116107ff5760036000828152602001908152602001600020604051806101a00160405290816000820154815260200160018201805461041290612e46565b80601f016020809104026020016040519081016040528092919081815260200182805461043e90612e46565b801561048b5780601f106104605761010080835404028352916020019161048b565b820191906000526020600020905b81548152906001019060200180831161046e57829003601f168201915b505050505081526020016002820180546104a490612e46565b80601f01602080910402602001604051908101604052809291908181526020018280546104d090612e46565b801561051d5780601f106104f25761010080835404028352916020019161051d565b820191906000526020600020905b81548152906001019060200180831161050057829003601f168201915b5050505050815260200160038201805461053690612e46565b80601f016020809104026020016040519081016040528092919081815260200182805461056290612e46565b80156105af5780601f10610584576101008083540402835291602001916105af565b820191906000526020600020905b81548152906001019060200180831161059257829003601f168201915b5050505050815260200160048201548152602001600582015481526020016006820160009054906101000a900460ff161515151581526020016006820160019054906101000a900473ffffffffffffffffffffffffffffffffffffffff1673ffffffffffffffffffffffffffffffffffffffff1673ffffffffffffffffffffffffffffffffffffffff168152602001600782015481526020016008820154815260200160098201548152602001600a82018054806020026020016040519081016040528092919081815260200182805480156106e057602002820191906000526020600020905b8160009054906101000a900473ffffffffffffffffffffffffffffffffffffffff1673ffffffffffffffffffffffffffffffffffffffff1681526020019060010190808311610696575b50505050508152602001600b8201805480602002602001604051908101604052809291908181526020016000905b828210156107ba57838290600052602060002001805461072d90612e46565b80601f016020809104026020016040519081016040528092919081815260200182805461075990612e46565b80156107a65780601f1061077b576101008083540402835291602001916107a6565b820191906000526020600020905b81548152906001019060200180831161078957829003601f168201915b50505050508152602001906001019061070e565b5050505081525050826001836107d09190612ea6565b815181106107e1576107e0612eda565b5b602002602001018190525080806107f790612f09565b9150506103d0565b508091505090565b6000606060006002600085815260200190815260200160002060009054906101000a900460ff1661086d576040517f08c379a000000000000000000000000000000000000000000000000000000000815260040161086490612cf9565b60405180910390fd5b600360008581526020019081526020016000206008015461088c611f78565b10156108cd576040517f08c379a00000000000000000000000000000000000000000000000000000000081526004016108c490612f9d565b60405180910390fd5b6000600360008681526020019081526020016000206005015411610926576040517f08c379a000000000000000000000000000000000000000000000000000000000815260040161091d90613009565b60405180910390fd5b6000806000600190505b600360008881526020019081526020016000206005015481116109bd57826006600089815260200190815260200160002060008381526020019081526020016000206004015411156109aa576006600088815260200190815260200160002060008281526020019081526020016000206004015492508091505b80806109b590612f09565b915050610930565b5060008111610a01576040517f08c379a00000000000000000000000000000000000000000000000000000000081526004016109f890613075565b60405180910390fd5b8094506006600087815260200190815260200160002060008281526020019081526020016000206002018054610a3690612e46565b80601f0160208091040260200160405190810160405280929190818152602001828054610a6290612e46565b8015610aaf5780601f10610a8457610100808354040283529160200191610aaf565b820191906000526020600020905b815481529060010190602001808311610a9257829003601f168201915b5050505050935060066000878152602001908152602001600020600082815260200190815260200160002060030160009054906101000a900473ffffffffffffffffffffffffffffffffffffffff16925050509193909250565b6002600085815260200190815260200160002060009054906101000a900460ff16610b69576040517f08c379a0000000000000000000000000000000000000000000000000000000008152600401610b6090612cf9565b60405180910390fd5b6000835111610bad576040517f08c379a0000000000000000000000000000000000000000000000000000000008152600401610ba4906130e1565b60405180910390fd5b6000825111610bf1576040517f08c379a0000000000000000000000000000000000000000000000000000000008152600401610be89061314d565b60405180910390fd5b6001600360008681526020019081526020016000206004015410610c4a576040517f08c379a0000000000000000000000000000000000000000000000000000000008152600401610c41906131b9565b60405180910390fd5b3373ffffffffffffffffffffffffffffffffffffffff166003600086815260200190815260200160002060060160019054906101000a900473ffffffffffffffffffffffffffffffffffffffff1673ffffffffffffffffffffffffffffffffffffffff1614610cee576040517f08c379a0000000000000000000000000000000000000000000000000000000008152600401610ce59061324b565b60405180910390fd5b60016000815480929190610d0190612f09565b9190505550600060015490506040518060c001604052808281526020018481526020018581526020018373ffffffffffffffffffffffffffffffffffffffff16815260200160008152602001600067ffffffffffffffff811115610d6857610d6761275c565b5b604051908082528060200260200182016040528015610d965781602001602082028036833780820191505090505b50815250600660008781526020019081526020016000206000838152602001908152602001600020600082015181600001556020820151816001019081610ddd9190613417565b506040820151816002019081610df39190613417565b5060608201518160030160006101000a81548173ffffffffffffffffffffffffffffffffffffffff021916908373ffffffffffffffffffffffffffffffffffffffff1602179055506080820151816004015560a0820151816005019080519060200190610e61929190612000565b5090505060036000868152602001908152602001600020600b0183908060018154018082558091505060019003906000526020600020016000909190919091509081610ead9190613417565b50600360008681526020019081526020016000206005016000815480929190610ed590612f09565b91905055508173ffffffffffffffffffffffffffffffffffffffff1681867f835ee8869cc0f2658a3fad0978ae8c43dfb92e1ed253ba344d94fe90774c185b8787604051610f249291906134e9565b60405180910390a45050505050565b6002600083815260200190815260200160002060009054906101000a900460ff16610f93576040517f08c379a0000000000000000000000000000000000000000000000000000000008152600401610f8a90612cf9565b60405180910390fd5b3373ffffffffffffffffffffffffffffffffffffffff166003600084815260200190815260200160002060060160019054906101000a900473ffffffffffffffffffffffffffffffffffffffff1673ffffffffffffffffffffffffffffffffffffffff1614611037576040517f08c379a000000000000000000000000000000000000000000000000000000000815260040161102e90613592565b60405180910390fd5b6007600083815260200190815260200160002060008273ffffffffffffffffffffffffffffffffffffffff1673ffffffffffffffffffffffffffffffffffffffff16815260200190815260200160002060009054906101000a900460ff16156110d5576040517f08c379a00000000000000000000000000000000000000000000000000000000081526004016110cc906135fe565b60405180910390fd5b60016007600084815260200190815260200160002060008373ffffffffffffffffffffffffffffffffffffffff1673ffffffffffffffffffffffffffffffffffffffff16815260200190815260200160002060006101000a81548160ff02191690831515021790555060086000838152602001908152602001600020819080600181540180825580915050600190039060005260206000200160009091909190916101000a81548173ffffffffffffffffffffffffffffffffffffffff021916908373ffffffffffffffffffffffffffffffffffffffff1602179055508073ffffffffffffffffffffffffffffffffffffffff16827fc821f3f69f5ec12a0eb4c36ddd911c89b5c4e441d493be94980d2e34a742549160405160405180910390a35050565b6002600083815260200190815260200160002060009054906101000a900460ff1661125a576040517f08c379a000000000000000000000000000000000000000000000000000000000815260040161125190612cf9565b60405180910390fd5b6004600083815260200190815260200160002060003373ffffffffffffffffffffffffffffffffffffffff1673ffffffffffffffffffffffffffffffffffffffff16815260200190815260200160002060009054906101000a900460ff16156112f8576040517f08c379a00000000000000000000000000000000000000000000000000000000081526004016112ef9061366a565b60405180910390fd5b6003600083815260200190815260200160002060060160009054906101000a900460ff161561135c576040517f08c379a0000000000000000000000000000000000000000000000000000000008152600401611353906136d6565b60405180910390fd5b60016003600084815260200190815260200160002060050154116113b5576040517f08c379a00000000000000000000000000000000000000000000000000000000081526004016113ac90613742565b60405180910390fd5b6007600083815260200190815260200160002060003373ffffffffffffffffffffffffffffffffffffffff1673ffffffffffffffffffffffffffffffffffffffff16815260200190815260200160002060009054906101000a900460ff16611452576040517f08c379a0000000000000000000000000000000000000000000000000000000008152600401611449906137ae565b60405180910390fd5b6003600083815260200190815260200160002060070154611471611f78565b1015801561149b57506003600083815260200190815260200160002060080154611499611f78565b105b6114da576040517f08c379a00000000000000000000000000000000000000000000000000000000081526004016114d19061381a565b60405180910390fd5b60036000838152602001908152602001600020600401600081548092919061150190612f09565b919050555060036000838152602001908152602001600020600a01339080600181540180825580915050600190039060005260206000200160009091909190916101000a81548173ffffffffffffffffffffffffffffffffffffffff021916908373ffffffffffffffffffffffffffffffffffffffff16021790555060066000838152602001908152602001600020600082815260200190815260200160002060040160008154809291906115b590612f09565b9190505550600660008381526020019081526020016000206000828152602001908152602001600020600501339080600181540180825580915050600190039060005260206000200160009091909190916101000a81548173ffffffffffffffffffffffffffffffffffffffff021916908373ffffffffffffffffffffffffffffffffffffffff16021790555060016004600084815260200190815260200160002060003373ffffffffffffffffffffffffffffffffffffffff1673ffffffffffffffffffffffffffffffffffffffff16815260200190815260200160002060006101000a81548160ff0219169083151502179055503373ffffffffffffffffffffffffffffffffffffffff167f4d99b957a2bc29a30ebd96a7be8e68fe50a3c701db28a91436490b7d53870ca46116eb611f78565b6040516116f8919061383a565b60405180910390a25050565b60606002600083815260200190815260200160002060009054906101000a900460ff16611766576040517f08c379a000000000000000000000000000000000000000000000000000000000815260040161175d90612cf9565b60405180910390fd5b6000600360008481526020019081526020016000206005015467ffffffffffffffff8111156117985761179761275c565b5b6040519080825280602002602001820160405280156117d157816020015b6117be61208a565b8152602001906001900390816117b65790505b5090506000600190505b60036000858152602001908152602001600020600501548111611a80576006600085815260200190815260200160002060008281526020019081526020016000206040518060c00160405290816000820154815260200160018201805461184190612e46565b80601f016020809104026020016040519081016040528092919081815260200182805461186d90612e46565b80156118ba5780601f1061188f576101008083540402835291602001916118ba565b820191906000526020600020905b81548152906001019060200180831161189d57829003601f168201915b505050505081526020016002820180546118d390612e46565b80601f01602080910402602001604051908101604052809291908181526020018280546118ff90612e46565b801561194c5780601f106119215761010080835404028352916020019161194c565b820191906000526020600020905b81548152906001019060200180831161192f57829003601f168201915b505050505081526020016003820160009054906101000a900473ffffffffffffffffffffffffffffffffffffffff1673ffffffffffffffffffffffffffffffffffffffff1673ffffffffffffffffffffffffffffffffffffffff1681526020016004820154815260200160058201805480602002602001604051908101604052809291908181526020018280548015611a3a57602002820191906000526020600020905b8160009054906101000a900473ffffffffffffffffffffffffffffffffffffffff1673ffffffffffffffffffffffffffffffffffffffff16815260200190600101908083116119f0575b50505050508152505082600183611a519190612ea6565b81518110611a6257611a61612eda565b5b60200260200101819052508080611a7890612f09565b9150506117db565b5080915050919050565b60606002600083815260200190815260200160002060009054906101000a900460ff16611aec576040517f08c379a0000000000000000000000000000000000000000000000000000000008152600401611ae390612cf9565b60405180910390fd5b60086000838152602001908152602001600020805480602002602001604051908101604052809291908181526020018280548015611b7f57602002820191906000526020600020905b8160009054906101000a900473ffffffffffffffffffffffffffffffffffffffff1673ffffffffffffffffffffffffffffffffffffffff1681526020019060010190808311611b35575b50505050509050919050565b6000845111611bcf576040517f08c379a0000000000000000000000000000000000000000000000000000000008152600401611bc6906138a1565b60405180910390fd5b6000835111611c13576040517f08c379a0000000000000000000000000000000000000000000000000000000008152600401611c0a9061390d565b60405180910390fd5b6000855111611c57576040517f08c379a0000000000000000000000000000000000000000000000000000000008152600401611c4e90613979565b60405180910390fd5b60008211611c9a576040517f08c379a0000000000000000000000000000000000000000000000000000000008152600401611c9190613a0b565b60405180910390fd5b818111611cdc576040517f08c379a0000000000000000000000000000000000000000000000000000000008152600401611cd390613a9d565b60405180910390fd5b600080815480929190611cee90612f09565b9190505550600080549050604051806101a0016040528082815260200187815260200186815260200185815260200160008152602001600081526020016000151581526020013373ffffffffffffffffffffffffffffffffffffffff168152602001848152602001838152602001611d64611f78565b8152602001600067ffffffffffffffff811115611d8457611d8361275c565b5b604051908082528060200260200182016040528015611db25781602001602082028036833780820191505090505b508152602001600067ffffffffffffffff811115611dd357611dd261275c565b5b604051908082528060200260200182016040528015611e0657816020015b6060815260200190600190039081611df15790505b5081525060036000838152602001908152602001600020600082015181600001556020820151816001019081611e3c9190613417565b506040820151816002019081611e529190613417565b506060820151816003019081611e689190613417565b506080820151816004015560a0820151816005015560c08201518160060160006101000a81548160ff02191690831515021790555060e08201518160060160016101000a81548173ffffffffffffffffffffffffffffffffffffffff021916908373ffffffffffffffffffffffffffffffffffffffff16021790555061010082015181600701556101208201518160080155610140820151816009015561016082015181600a019080519060200190611f22929190612000565b5061018082015181600b019080519060200190611f409291906120d6565b5090505060016002600083815260200190815260200160002060006101000a81548160ff021916908315150217905550505050505050565b600042905090565b604051806101a00160405280600081526020016060815260200160608152602001606081526020016000815260200160008152602001600015158152602001600073ffffffffffffffffffffffffffffffffffffffff16815260200160008152602001600081526020016000815260200160608152602001606081525090565b828054828255906000526020600020908101928215612079579160200282015b828111156120785782518260006101000a81548173ffffffffffffffffffffffffffffffffffffffff021916908373ffffffffffffffffffffffffffffffffffffffff16021790555091602001919060010190612020565b5b509050612086919061212f565b5090565b6040518060c00160405280600081526020016060815260200160608152602001600073ffffffffffffffffffffffffffffffffffffffff16815260200160008152602001606081525090565b82805482825590600052602060002090810192821561211e579160200282015b8281111561211d57825182908161210d9190613417565b50916020019190600101906120f6565b5b50905061212b919061214c565b5090565b5b80821115612148576000816000905550600101612130565b5090565b5b8082111561216c57600081816121639190612170565b5060010161214d565b5090565b50805461217c90612e46565b6000825580601f1061218e57506121ad565b601f0160209004906000526020600020908101906121ac919061212f565b5b50565b6000604051905090565b600080fd5b600080fd5b6000819050919050565b6121d7816121c4565b81146121e257600080fd5b50565b6000813590506121f4816121ce565b92915050565b6000602082840312156122105761220f6121ba565b5b600061221e848285016121e5565b91505092915050565b600081519050919050565b600082825260208201905092915050565b6000819050602082019050919050565b61225c816121c4565b82525050565b600081519050919050565b600082825260208201905092915050565b60005b8381101561229c578082015181840152602081019050612281565b60008484015250505050565b6000601f19601f8301169050919050565b60006122c482612262565b6122ce818561226d565b93506122de81856020860161227e565b6122e7816122a8565b840191505092915050565b60008115159050919050565b612307816122f2565b82525050565b600073ffffffffffffffffffffffffffffffffffffffff82169050919050565b60006123388261230d565b9050919050565b6123488161232d565b82525050565b600081519050919050565b600082825260208201905092915050565b6000819050602082019050919050565b6000612386838361233f565b60208301905092915050565b6000602082019050919050565b60006123aa8261234e565b6123b48185612359565b93506123bf8361236a565b8060005b838110156123f05781516123d7888261237a565b97506123e283612392565b9250506001810190506123c3565b5085935050505092915050565b600081519050919050565b600082825260208201905092915050565b6000819050602082019050919050565b600061243583836122b9565b905092915050565b6000602082019050919050565b6000612455826123fd565b61245f8185612408565b93508360208202850161247185612419565b8060005b858110156124ad578484038952815161248e8582612429565b94506124998361243d565b925060208a01995050600181019050612475565b50829750879550505050505092915050565b60006101a0830160008301516124d86000860182612253565b50602083015184820360208601526124f082826122b9565b9150506040830151848203604086015261250a82826122b9565b9150506060830151848203606086015261252482826122b9565b91505060808301516125396080860182612253565b5060a083015161254c60a0860182612253565b5060c083015161255f60c08601826122fe565b5060e083015161257260e086018261233f565b50610100830151612587610100860182612253565b5061012083015161259c610120860182612253565b506101408301516125b1610140860182612253565b506101608301518482036101608601526125cb828261239f565b9150506101808301518482036101808601526125e7828261244a565b9150508091505092915050565b600061260083836124bf565b905092915050565b6000602082019050919050565b600061262082612227565b61262a8185612232565b93508360208202850161263c85612243565b8060005b85811015612678578484038952815161265985826125f4565b945061266483612608565b925060208a01995050600181019050612640565b50829750879550505050505092915050565b600060208201905081810360008301526126a48184612615565b905092915050565b6126b5816121c4565b82525050565b600082825260208201905092915050565b60006126d782612262565b6126e181856126bb565b93506126f181856020860161227e565b6126fa816122a8565b840191505092915050565b61270e8161232d565b82525050565b600060608201905061272960008301866126ac565b818103602083015261273b81856126cc565b905061274a6040830184612705565b949350505050565b600080fd5b600080fd5b7f4e487b7100000000000000000000000000000000000000000000000000000000600052604160045260246000fd5b612794826122a8565b810181811067ffffffffffffffff821117156127b3576127b261275c565b5b80604052505050565b60006127c66121b0565b90506127d2828261278b565b919050565b600067ffffffffffffffff8211156127f2576127f161275c565b5b6127fb826122a8565b9050602081019050919050565b82818337600083830152505050565b600061282a612825846127d7565b6127bc565b90508281526020810184848401111561284657612845612757565b5b612851848285612808565b509392505050565b600082601f83011261286e5761286d612752565b5b813561287e848260208601612817565b91505092915050565b6128908161232d565b811461289b57600080fd5b50565b6000813590506128ad81612887565b92915050565b600080600080608085870312156128cd576128cc6121ba565b5b60006128db878288016121e5565b945050602085013567ffffffffffffffff8111156128fc576128fb6121bf565b5b61290887828801612859565b935050604085013567ffffffffffffffff811115612929576129286121bf565b5b61293587828801612859565b92505060606129468782880161289e565b91505092959194509250565b60008060408385031215612969576129686121ba565b5b6000612977858286016121e5565b92505060206129888582860161289e565b9150509250929050565b600080604083850312156129a9576129a86121ba565b5b60006129b7858286016121e5565b92505060206129c8858286016121e5565b9150509250929050565b600081519050919050565b600082825260208201905092915050565b6000819050602082019050919050565b600060c083016000830151612a166000860182612253565b5060208301518482036020860152612a2e82826122b9565b91505060408301518482036040860152612a4882826122b9565b9150506060830151612a5d606086018261233f565b506080830151612a706080860182612253565b5060a083015184820360a0860152612a88828261239f565b9150508091505092915050565b6000612aa183836129fe565b905092915050565b6000602082019050919050565b6000612ac1826129d2565b612acb81856129dd565b935083602082028501612add856129ee565b8060005b85811015612b195784840389528151612afa8582612a95565b9450612b0583612aa9565b925060208a01995050600181019050612ae1565b50829750879550505050505092915050565b60006020820190508181036000830152612b458184612ab6565b905092915050565b600082825260208201905092915050565b6000612b698261234e565b612b738185612b4d565b9350612b7e8361236a565b8060005b83811015612baf578151612b96888261237a565b9750612ba183612392565b925050600181019050612b82565b5085935050505092915050565b60006020820190508181036000830152612bd68184612b5e565b905092915050565b600080600080600060a08688031215612bfa57612bf96121ba565b5b600086013567ffffffffffffffff811115612c1857612c176121bf565b5b612c2488828901612859565b955050602086013567ffffffffffffffff811115612c4557612c446121bf565b5b612c5188828901612859565b945050604086013567ffffffffffffffff811115612c7257612c716121bf565b5b612c7e88828901612859565b9350506060612c8f888289016121e5565b9250506080612ca0888289016121e5565b9150509295509295909350565b7f506f6c6c206e6f7420666f756e64000000000000000000000000000000000000600082015250565b6000612ce3600e836126bb565b9150612cee82612cad565b602082019050919050565b60006020820190508181036000830152612d1281612cd6565b9050919050565b7f4f6e6c792074686520706f6c6c2063726561746f722063616e2064656c65746560008201527f2074686520706f6c6c0000000000000000000000000000000000000000000000602082015250565b6000612d756029836126bb565b9150612d8082612d19565b604082019050919050565b60006020820190508181036000830152612da481612d68565b9050919050565b7f506f6c6c20616c72656164792064656c65746564000000000000000000000000600082015250565b6000612de16014836126bb565b9150612dec82612dab565b602082019050919050565b60006020820190508181036000830152612e1081612dd4565b9050919050565b7f4e487b7100000000000000000000000000000000000000000000000000000000600052602260045260246000fd5b60006002820490506001821680612e5e57607f821691505b602082108103612e7157612e70612e17565b5b50919050565b7f4e487b7100000000000000000000000000000000000000000000000000000000600052601160045260246000fd5b6000612eb1826121c4565b9150612ebc836121c4565b9250828203905081811115612ed457612ed3612e77565b5b92915050565b7f4e487b7100000000000000000000000000000000000000000000000000000000600052603260045260246000fd5b6000612f14826121c4565b91507fffffffffffffffffffffffffffffffffffffffffffffffffffffffffffffffff8203612f4657612f45612e77565b5b600182019050919050565b7f506f6c6c20686173206e6f7420656e6465642079657400000000000000000000600082015250565b6000612f876016836126bb565b9150612f9282612f51565b602082019050919050565b60006020820190508181036000830152612fb681612f7a565b9050919050565b7f4e6f20636f6e74657374616e747320696e207468697320706f6c6c0000000000600082015250565b6000612ff3601b836126bb565b9150612ffe82612fbd565b602082019050919050565b6000602082019050818103600083015261302281612fe6565b9050919050565b7f4e6f2077696e6e657220666f756e640000000000000000000000000000000000600082015250565b600061305f600f836126bb565b915061306a82613029565b602082019050919050565b6000602082019050818103600083015261308e81613052565b9050919050565b7f4e616d652063616e6e6f7420626520656d707479000000000000000000000000600082015250565b60006130cb6014836126bb565b91506130d682613095565b602082019050919050565b600060208201905081810360008301526130fa816130be565b9050919050565b7f496d6167652063616e6e6f7420626520656d7074790000000000000000000000600082015250565b60006131376015836126bb565b915061314282613101565b602082019050919050565b600060208201905081810360008301526131668161312a565b9050919050565b7f506f6c6c2068617320766f74657320616c726561647900000000000000000000600082015250565b60006131a36016836126bb565b91506131ae8261316d565b602082019050919050565b600060208201905081810360008301526131d281613196565b9050919050565b7f4f6e6c792074686520706f6c6c2063726561746f722063616e2061646420636f60008201527f6e74657374616e74730000000000000000000000000000000000000000000000602082015250565b60006132356029836126bb565b9150613240826131d9565b604082019050919050565b6000602082019050818103600083015261326481613228565b9050919050565b60008190508160005260206000209050919050565b60006020601f8301049050919050565b600082821b905092915050565b6000600883026132cd7fffffffffffffffffffffffffffffffffffffffffffffffffffffffffffffffff82613290565b6132d78683613290565b95508019841693508086168417925050509392505050565b6000819050919050565b600061331461330f61330a846121c4565b6132ef565b6121c4565b9050919050565b6000819050919050565b61332e836132f9565b61334261333a8261331b565b84845461329d565b825550505050565b600090565b61335761334a565b613362818484613325565b505050565b5b818110156133865761337b60008261334f565b600181019050613368565b5050565b601f8211156133cb5761339c8161326b565b6133a584613280565b810160208510156133b4578190505b6133c86133c085613280565b830182613367565b50505b505050565b600082821c905092915050565b60006133ee600019846008026133d0565b1980831691505092915050565b600061340783836133dd565b9150826002028217905092915050565b61342082612262565b67ffffffffffffffff8111156134395761343861275c565b5b6134438254612e46565b61344e82828561338a565b600060209050601f831160018114613481576000841561346f578287015190505b61347985826133fb565b8655506134e1565b601f19841661348f8661326b565b60005b828110156134b757848901518255600182019150602085019450602081019050613492565b868310156134d457848901516134d0601f8916826133dd565b8355505b6001600288020188555050505b505050505050565b6000604082019050818103600083015261350381856126cc565b9050818103602083015261351781846126cc565b90509392505050565b7f4f6e6c792074686520706f6c6c2063726561746f722063616e2077686974656c60008201527f69737420766f7465727300000000000000000000000000000000000000000000602082015250565b600061357c602a836126bb565b915061358782613520565b604082019050919050565b600060208201905081810360008301526135ab8161356f565b9050919050565b7f566f74657220616c72656164792077686974656c697374656400000000000000600082015250565b60006135e86019836126bb565b91506135f3826135b2565b602082019050919050565b60006020820190508181036000830152613617816135db565b9050919050565b7f416c726561647920766f74656400000000000000000000000000000000000000600082015250565b6000613654600d836126bb565b915061365f8261361e565b602082019050919050565b6000602082019050818103600083015261368381613647565b9050919050565b7f506f6c6c696e67206e6f7420617661696c61626c650000000000000000000000600082015250565b60006136c06015836126bb565b91506136cb8261368a565b602082019050919050565b600060208201905081810360008301526136ef816136b3565b9050919050565b7f4e6f7420656e6f75676820636f6e74657374616e747300000000000000000000600082015250565b600061372c6016836126bb565b9150613737826136f6565b602082019050919050565b6000602082019050818103600083015261375b8161371f565b9050919050565b7f596f7520617265206e6f742077686974656c697374656420746f20766f746500600082015250565b6000613798601f836126bb565b91506137a382613762565b602082019050919050565b600060208201905081810360008301526137c78161378b565b9050919050565b7f566f74696e67206d75737420626520696e2073657373696f6e00000000000000600082015250565b60006138046019836126bb565b915061380f826137ce565b602082019050919050565b60006020820190508181036000830152613833816137f7565b9050919050565b600060208201905061384f60008301846126ac565b92915050565b7f5469746c652063616e6e6f7420626520656d7074790000000000000000000000600082015250565b600061388b6015836126bb565b915061389682613855565b602082019050919050565b600060208201905081810360008301526138ba8161387e565b9050919050565b7f4465736372697074696f6e2063616e6e6f7420626520656d7074790000000000600082015250565b60006138f7601b836126bb565b9150613902826138c1565b602082019050919050565b60006020820190508181036000830152613926816138ea565b9050919050565b7f496d6167652055524c2063616e6e6f7420626520656d70747900000000000000600082015250565b60006139636019836126bb565b915061396e8261392d565b602082019050919050565b6000602082019050818103600083015261399281613956565b9050919050565b7f53746172742064617465206d7573742062652067726561746572207468616e2060008201527f3000000000000000000000000000000000000000000000000000000000000000602082015250565b60006139f56021836126bb565b9150613a0082613999565b604082019050919050565b60006020820190508181036000830152613a24816139e8565b9050919050565b7f456e642064617465206d7573742062652067726561746572207468616e20737460008201527f6172742064617465000000000000000000000000000000000000000000000000602082015250565b6000613a876028836126bb565b9150613a9282613a2b565b604082019050919050565b60006020820190508181036000830152613ab681613a7a565b905091905056fea26469706673582212206597f7ed49b183db5e3726332eef5667b8bcbab49a63aa0597e79d169993408864736f6c634300081c0033",
  "linkReferences": {},
  "deployedLinkReferences": {}
}